S01100004E485F63616E646C652E73726563B7
S113000045C0000060C000005EC000005CC000008D
S11300105AC0000058C0000056C0000054C0000080
S113002052C0000050C000004EC000004CC0000090
S11300304AC0000048C0000046C0000044C00000A0
S113004042C0000040C00000E5C200003CC0000007
S11300503AC0000038C0000036C0000034C00000C0
S113006032C0000030C000002EC000002CC00000D0
S11300702AC0000028C0000026C0000024C00000E0
S113008022C0000020C000001EC0000011241FBEBA
S1130090CFEFD0E1DEBFCDBF11E0A0E0B1E0E4EAF4
S11300A0FCE000E00BBF02C007900D92AA33B10739
S11300B0D9F721E0AAE3B1E001C01D92AE37B2073F
S11300C0E1F7F8D0EDC59CCF80E886B986B18760AA
S11300D086B9089590E497B997B1892B87B9369A70
S11300E03699FECF84B195B10895889A90982FEFF0
S11300F089EF90E0215080409040E1F700C000007B
S1130100909A089588988099FECF809BFECF80991D
S1130110FECF089588E090E0809BFECF20EA2A95E8
S1130120F1F7809B07C020914601220F21602093A4
S1130130460105C020914601220F20934601809973
S1130140FECF019749F78091460108951ABAA898FD
S1130150A99AAA9A85E08A95F1F7000089B395E0F7
S11301609A95F1F70000AA989FEF9ABB95E09A95AB
S1130170F1F700000895A898A998AA9A8BBB85E086
S11301808A95F1F70000AA9885E08A95F1F70000B6
S11301900895CF93C82F04C085E08A95F1F7000035
S11301A0D5DF8823CCF3A898A998AA9ACBBB85E07D
S11301B08A95F1F70000AA9885E08A95F1F7000086
S11301C0CF9108952FEF81EE94E02150804090402C
S11301D0E1F700C0000088E3CEDF8FE39CE90197DC
S11301E0F1F700C0000088E3C6DF8FE193E00197D8
S11301F0F1F700C0000088E3BEDF8FE193E00197D0
S1130200F1F700C0000088E3C4DF8CE0C2DF81E0C6
S1130210C0CF0895CF93C82F04C085E08A95F1F725
S1130220000094DF8823CCF3A89AA998AA9ACBBBA0
S113023085E08A95F1F70000AA9885E08A95F1F7A0
S11302400000CF910895CF93DF93EC018881882338
S113025029F02196DFDF89918111FCCFDF91CF91C5
S113026008959093900089B988E98AB908955D9BAF
S1130270FECF8CB90895CF93DF93EC018881882356
S113028029F02196F4DF89918111FCCFDF91CF9180
S113029008958FB5896A8FBD8EB58A608EBD1BBCEB
S11302A01ABC19BC18BC84E690E090937900809342
S11302B078000895CF93DF93CDB7DEB7E2970FB6FA
S11302C0F894DEBF0FBECDBF8FEF8ABB84BB87BB64
S11302D011BA1092610076DFF7DEDBDF87E690E08B
S11302E0C0DF7894E12CF12C01E010E00F2EF7E44C
S11302F06F2EF1E07F2EF02D0F2EF0E0AF2EF1E007
S1130300BF2EF02DCE0101966C0144244A94512C49
S113031080913E0190913F01892B09F483C0F30140
S113032080818D3429F4018110E00053110976C0D5
S1130330833509F073C0F301818190E0C097F4E63E
S1130340F89FA001F99F500D1124F301828190E0E0
S1130350C097BC01660F771F9C01220F331F220F29
S1130360331F220F331FCB01820F931F840F951F5E
S1130370238130E020533109820F931F909345016C
S113038080934401848190E0C097F4E6F89FA00133
S1130390F99F500D1124F301858190E0C097BC01B1
S11303A0660F771F9C01220F331F220F331F220F6A
S11303B0331FCB01820F931F840F951F268130E0DA
S11303C020533109820F931F90934301809342017C
S11303D0878190E0C097F4E6F89FA001F99F500D43
S11303E01124F301808590E0C097BC01660F771F4C
S11303F09C01220F331F220F331F220F331FCB0107
S1130400820F931F840F951F218530E020533109FB
S1130410820F931F909341018093400110923F01FA
S113042010923E0180E056DE4C01019B0BC00F5F31
S11304301F4FFFEF21EE84E0F15020408040E1F7B0
S113044000C000000430110514F001E010E01F9317
S11304500F93BF92AF92DF92CF9247D180E890E0A2
S113046098DEC601F0DE0F900F900F900F900F9062
S11304700F9098ECE916F1040CF45AC036DE42DE13
S113048049DEE82E47DE282E45DE382E43DEF82EE0
S113049041DE222D30E02E0D311D230D311D2F0D97
S11304A0311D90E02817390789F086E0E8E0F1E093
S11304B0D60101900D928A95E1F70130110509F4F6
S11304C03EC0E12CF12C33243A945BC09F928F926E
S11304D01F922F921F92EF921F92FF921F923F92B0
S11304E0EEE0F1E0FF93EF93DF92CF92FED080EC49
S11304F090E04FDEC601A7DE1F930F939F928F9269
S11305001F922F921F92EF921F92FF921F923F927F
S11305108FE191E09F938F93DF92CF92E6D0C60153
S1130520AADE0FB6F894DEBF0FBECDBFE12CF12CCE
S11305300130110531F59EE1931570F404C0E12CEE
S1130540F12C33243A945BBC4ABC19BC18BCE8E7D0
S1130550F0E01182108254C0F9E1F31548F41BBC99
S11305601ABC59BC48BCE8E7F0E01182108248C0CC
S11305701BBC1ABC19BC18BCE8E7F0E051824082ED
S11305803FC00230110529F5F1E28F16F3E09F0612
S11305904CF01BBC1ABC19BC18BCE8E7F0E0518253
S11305A040822EC0F9E58F16F2E09F064CF01BBC8A
S11305B01ABC59BC48BCE8E7F0E01182108220C0A4
S11305C05BBC4ABC19BC18BCE8E7F0E0118210829D
S11305D017C003301105A1F48091400190914101AD
S11305E020914201309143014091440150914501D1
S11305F05BBD4ABD39BD28BDE8E7F0E09183808347
S11306008FE39CE90197F1F700C000009FEFE91A1E
S1130610F90A7ECE1F920F920FB60F9211240BB6D9
S11306200F922F933F934F935F936F937F938F9387
S11306309F93AF93BF93EF93FF938CB18230C9F430
S113064081E090E090933B0180933A01E7E4F1E08C
S113065001900020E9F73197AF014754514060E021
S113066070E087E491E03AD010923D0110923C0191
S113067022C0833059F410923B0110923A0181E078
S113068090E090933F0180933E0115C020913A0180
S113069030913B01232B79F020913C0130913D01B5
S11306A0A9014F5F5F4F50933D0140933C01F90115
S11306B0E95BFE4F8083FF91EF91BF91AF919F91D2
S11306C08F917F916F915F914F913F912F910F90F7
S11306D00BBE0F900FBE0F901F901895DC0101C048
S11306E06D9341505040E0F708950F931F93CF93BB
S11306F0DF93CDB7DEB72E970FB6F894DEBF0FBEEB
S1130700CDBF0D891E8986E08C831A8309838FEF00
S11307109FE79E838D83AE01475E5F4F6F89788D1F
S1130720CE01019610D0EF81F885E00FF11F108201
S11307302E960FB6F894DEBF0FBECDBFDF91CF91DA
S11307401F910F9108952F923F924F925F926F9253
S11307507F928F929F92AF92BF92CF92DF92EF924D
S1130760FF920F931F93CF93DF93CDB7DEB72B97F1
S11307700FB6F894DEBF0FBECDBF6C017B018A01BA
S1130780FC0117821682838181FFBFC1CE010196CD
S11307903C01F6019381F70193FD859193FF8191CB
S11307A07F01882309F4ADC1853239F493FD859125
S11307B093FF81917F01853221F4B60190E0D6D177
S11307C0E8CF912C212C312CFFE1F315D8F08B329A
S11307D079F038F4803279F08332A1F4232D20614A
S11307E01DC08D3261F0803369F4232D216016C061
S11307F0832D8260382EE32DE4603E2E2AC0F32D33
S1130800F8601DC037FC2DC020ED280F2A3040F0C1
S11308108E32B9F436FC75C1232D2064322E19C0F2
S113082036FE06C08AE0989E200D1124922E11C037
S1130830EAE02E9E200D1124222EF32DF0623F2E8D
S113084008C08C3621F4832D8068382E02C0883687
S113085041F4F70193FD859193FF81917F0181110B
S1130860B3CF982F9F7D9554933028F40C5F1F4F7E
S11308709FE399830DC0833631F0833771F083355C
S113088009F055C020C0F801808189830E5F1F4F95
S113089088248394912C530112C02801F2E04F0E56
S11308A0511CF801A080B18036FE03C0692D70E0B0
S11308B002C06FEF7FEFC5014ED14C018201F32DD1
S11308C0FF773F2E15C0280122E0420E511CF8018B
S11308D0A080B18036FE03C0692D70E002C06FEFC6
S11308E07FEFC5012DD14C01F32DF0683F2E82011D
S11308F033FC19C0822D90E088169906A0F4B60145
S113090080E290E033D12A94F5CFF50137FC85914C
S113091037FE81915F01B60190E028D121102A941D
S113092021E0821A91088114910479F7E1C0843698
S113093011F0893639F5F80137FE07C060817181FD
S1130940828193810C5F1F4F08C060817181072EE3
S1130950000C880B990B0E5F1F4FF32DFF763F2E73
S113096097FF09C090958095709561957F4F8F4F43
S11309709F4FF0683F2E2AE030E0A30133D1882E48
S1130980861844C0853731F4232D2F7EB22E2AE0F9
S113099030E025C0932D997FB92E8F36C1F018F41D
S11309A0883579F0AEC0803719F0883721F0A9C0B6
S11309B0E92FE061BE2EB4FE0DC0FB2DF460BF2E06
S11309C009C034FE0AC0292F2660B22E06C028E0D2
S11309D030E005C020E130E002C020E132E0F8015F
S11309E0B7FE07C060817181828193810C5F1F4FC4
S11309F006C06081718180E090E00E5F1F4FA3010B
S1130A00F1D0882E8618FB2DFF773F2E36FE0DC0C1
S1130A10232D2E7FA22E891458F434FE0BC032FCF1
S1130A2009C0832D8E7EA82E05C0B82CA32C03C02C
S1130A30B82C01C0B92CA4FE0FC0FE01E80DF11DB5
S1130A408081803321F49A2D997EA92E09C0A2FEBB
S1130A5006C0B394B39404C08A2D867809F0B39485
S1130A60A3FC10C0A0FE06C0B21480F4280C922C83
S1130A709B180DC0B21458F4B60180E290E076D011
S1130A80B394F8CFB21418F42B1802C0982C212C6C
S1130A90A4FE0FC0B60180E390E068D0A2FE16C0A9
S1130AA0A1FC03C088E790E002C088E590E0B601AD
S1130AB00CC08A2D867851F0A1FE02C08BE201C0E1
S1130AC080E2A7FC8DE2B60190E050D0891430F4A6
S1130AD0B60180E390E04AD09A94F8CF8A94F30167
S1130AE0E80DF11D8081B60190E040D08110F6CF71
S1130AF0222009F44ECEB60180E290E037D02A9449
S1130B00F7CFF6018681978102C08FEF9FEF2B9676
S1130B100FB6F894DEBF0FBECDBFDF91CF911F910A
S1130B200F91FF90EF90DF90CF90BF90AF909F9088
S1130B308F907F906F905F904F903F902F9008958B
S1130B40FC010590615070400110D8F78095909594
S1130B508E0F9F1F0895FC01615070400190011099
S1130B60D8F7809590958E0F9F1F08950F931F932C
S1130B70CF93DF93FB01238121FD03C08FEF9FEF10
S1130B802CC022FF16C0468157812481358142172B
S1130B90530744F4A081B1819D012F5F3F4F3183FE
S1130BA020838C93268137812F5F3F4F37832683A1
S1130BB014C08B01EC01FB010084F185E02D099543
S1130BC0892BE1F6D80116968D919C911797019681
S1130BD017969C938E931697CE01DF91CF911F9118
S1130BE00F910895FA01AA27283051F1203181F19B
S1130BF0E8946F936E7F6E5F7F4F8F4F9F4FAF4F21
S1130C00B1E03ED0B4E03CD0670F781F891F9A1F33
S1130C10A11D680F791F8A1F911DA11D6A0F711DE7
S1130C20811D911DA11D20D009F468943F912AE0F3
S1130C30269F11243019305D3193DEF6CF010895DB
S1130C40462F4770405D4193B3E00FD0C9F7F6CF0C
S1130C50462F4F70405D4A3318F0495D31FD4052D4
S1130C60419302D0A9F7EACFB4E0A695979587956A
S1130C7077956795BA95C9F7009761057105089549
S1130C809B01AC010A2E06945795479537952795F5
S1130C90BA95C9F7620F731F841F951FA01D08958D
S1070CA0F894FFCFF2
S1130CA46D6F6465202564006572726F720025643B
S1130CB42E25642025642E256420256420200054D8
S1130CC42532642E256420482532642E256420436D
S10D0CD4253464204D25316400002E
S9030000FC
