:1000000045C0000053C0000051C000004FC00000B8
:100010004DC000004BC0000049C0000047C00000B8
:1000200045C0000043C0000041C000003FC00000C8
:100030003DC000003BC0000039C0000037C00000D8
:1000400035C0000033C00000ACC000002FC000006D
:100050002DC000002BC0000029C0000027C00000F8
:1000600025C0000023C0000021C000001FC0000008
:100070001DC000001BC0000019C0000017C0000018
:1000800015C0000013C0000011C0000011241FBEE5
:10009000CFEFD0E1DEBFCDBF21E0A0E0B1E001C0F5
:1000A0001D92A030B207E1F772D088C0A9CF80E8D6
:1000B00086B986B1876086B908951ABAA898A99AB0
:1000C000AA9A85E08A95F1F7000089B395E09A95A0
:1000D000F1F70000AA989FEF9ABB95E09A95F1F787
:1000E00000000895A898A998AA9A8BBB85E08A95E4
:1000F000F1F70000AA9885E08A95F1F700000895CD
:10010000CF93C82F04C085E08A95F1F70000D5DFB2
:100110008823CCF3A898A998AA9ACBBB85E08A95A6
:10012000F1F70000AA9885E08A95F1F70000CF91D9
:1001300008952FEF81EE94E0215080409040E1F748
:1001400000C0000088E3CEDF8FE39CE90197F1F760
:1001500000C0000088E3C6DF8FE193E00197F1F76C
:1001600000C0000088E3BEDF8FE193E00197F1F764
:1001700000C0000088E3C4DF8CE0C2DF81E0C0CFB4
:1001800008959093900089B988E98AB908958FEF0E
:100190008ABB84BBCEDF8BDF87E690E0F2DF78940A
:1001A000FFCF1F920F920FB60F9211248F938CB135
:1001B0008F910F900FBE0F901F901895F894FFCF5E
:00000001FF
